{
  "contractName": "demoContract",
  "abi": [
    {
      "constant": true,
      "inputs": [],
      "name": "hi",
      "outputs": [
        {
          "internalType": "string",
          "name": "",
          "type": "string"
        }
      ],
      "payable": false,
      "stateMutability": "pure",
      "type": "function"
    }
  ],
  "bytecode": "0x608060405234801561001057600080fd5b5061011d806100206000396000f3fe6080604052348015600f57600080fd5b506004361060285760003560e01c8063a99dca3f14602d575b600080fd5b603360ab565b6040518080602001828103825283818151815260200191508051906020019080838360005b8381101560715780820151818401526020810190506058565b50505050905090810190601f168015609d5780820380516001836020036101000a031916815260200191505b509250505060405180910390f35b60606040518060400160405280600a81526020017f68656c6c6f776f726c640000000000000000000000000000000000000000000081525090509056fea265627a7a72315820ec42da2a7e9c242d6b33ec0e1d6f16aeff7a2915569b1755ab986ed18e99e26a64736f6c63430005100032",
  "source": "pragma solidity >0.4.18;\ncontract demoContract {\n    function hi() public pure returns (string memory) {\n        return \"helloworld\";\n    }\n}",
  "sourcePath": "/home/decoders/soli/demo/contracts/demoContract.sol",
  "compiler": {
    "name": "solc",
    "version": "0.5.16+commit.9c3226ce.Emscripten.clang"
  },
  "schemaVersion": "3.3.3",
  "updatedAt": "2020-12-30T06:38:29.485Z",
  "networkType": "ethereum",
  "devdoc": {
    "methods": {}
  },
  "userdoc": {
    "methods": {}
  }
}